{
  "contractName": "OracleToken",
  "abi": [
    {
      "constant": true,
      "inputs": [],
      "name": "difficulty",
      "outputs": [
        {
          "name": "",
          "type": "uint256"
        }
      ],
      "payable": false,
      "stateMutability": "view",
      "type": "function"
    },
    {
      "constant": true,
      "inputs": [],
      "name": "currentChallenge",
      "outputs": [
        {
          "name": "",
          "type": "bytes32"
        }
      ],
      "payable": false,
      "stateMutability": "view",
      "type": "function"
    },
    {
      "constant": true,
      "inputs": [],
      "name": "valuePool",
      "outputs": [
        {
          "name": "",
          "type": "uint256"
        }
      ],
      "payable": false,
      "stateMutability": "view",
      "type": "function"
    },
    {
      "constant": true,
      "inputs": [],
      "name": "payoutMultiplier",
      "outputs": [
        {
          "name": "",
          "type": "uint256"
        }
      ],
      "payable": false,
      "stateMutability": "view",
      "type": "function"
    },
    {
      "constant": true,
      "inputs": [],
      "name": "timeTarget",
      "outputs": [
        {
          "name": "",
          "type": "uint256"
        }
      ],
      "payable": false,
      "stateMutability": "view",
      "type": "function"
    },
    {
      "constant": true,
      "inputs": [],
      "name": "API",
      "outputs": [
        {
          "name": "",
          "type": "string"
        }
      ],
      "payable": false,
      "stateMutability": "view",
      "type": "function"
    },
    {
      "constant": true,
      "inputs": [],
      "name": "timeOfLastProof",
      "outputs": [
        {
          "name": "",
          "type": "uint256"
        }
      ],
      "payable": false,
      "stateMutability": "view",
      "type": "function"
    },
    {
      "constant": true,
      "inputs": [],
      "name": "readFee",
      "outputs": [
        {
          "name": "",
          "type": "uint256"
        }
      ],
      "payable": false,
      "stateMutability": "view",
      "type": "function"
    },
    {
      "constant": true,
      "inputs": [],
      "name": "master",
      "outputs": [
        {
          "name": "",
          "type": "address"
        }
      ],
      "payable": false,
      "stateMutability": "view",
      "type": "function"
    },
    {
      "constant": true,
      "inputs": [
        {
          "name": "",
          "type": "uint256"
        }
      ],
      "name": "payoutStructure",
      "outputs": [
        {
          "name": "",
          "type": "uint256"
        }
      ],
      "payable": false,
      "stateMutability": "view",
      "type": "function"
    },
    {
      "anonymous": false,
      "inputs": [
        {
          "indexed": true,
          "name": "to",
          "type": "address"
        },
        {
          "indexed": false,
          "name": "_time",
          "type": "uint256"
        },
        {
          "indexed": false,
          "name": "value",
          "type": "uint256"
        }
      ],
      "name": "Mine",
      "type": "event"
    },
    {
      "anonymous": false,
      "inputs": [
        {
          "indexed": false,
          "name": "_miner",
          "type": "address"
        },
        {
          "indexed": false,
          "name": "_value",
          "type": "uint256"
        }
      ],
      "name": "NewValue",
      "type": "event"
    },
    {
      "constant": false,
      "inputs": [
        {
          "name": "_api",
          "type": "string"
        },
        {
          "name": "_master",
          "type": "address"
        },
        {
          "name": "_readFee",
          "type": "uint256"
        },
        {
          "name": "_timeTarget",
          "type": "uint256"
        },
        {
          "name": "_payoutStructure",
          "type": "uint256[5]"
        }
      ],
      "name": "init",
      "outputs": [],
      "payable": false,
      "stateMutability": "nonpayable",
      "type": "function"
    },
    {
      "constant": true,
      "inputs": [],
      "name": "getVariables",
      "outputs": [
        {
          "name": "",
          "type": "bytes32"
        },
        {
          "name": "",
          "type": "uint256"
        }
      ],
      "payable": false,
      "stateMutability": "view",
      "type": "function"
    },
    {
      "constant": false,
      "inputs": [
        {
          "name": "nonce",
          "type": "string"
        },
        {
          "name": "value",
          "type": "uint256"
        }
      ],
      "name": "proofOfWork",
      "outputs": [
        {
          "name": "",
          "type": "uint256"
        },
        {
          "name": "",
          "type": "uint256"
        }
      ],
      "payable": false,
      "stateMutability": "nonpayable",
      "type": "function"
    },
    {
      "constant": false,
      "inputs": [
        {
          "name": "_timestamp",
          "type": "uint256"
        }
      ],
      "name": "retrieveData",
      "outputs": [
        {
          "name": "",
          "type": "uint256"
        }
      ],
      "payable": false,
      "stateMutability": "nonpayable",
      "type": "function"
    },
    {
      "constant": false,
      "inputs": [
        {
          "name": "_tip",
          "type": "uint256"
        }
      ],
      "name": "addToValuePool",
      "outputs": [],
      "payable": false,
      "stateMutability": "nonpayable",
      "type": "function"
    },
    {
      "constant": false,
      "inputs": [
        {
          "name": "_timestamp",
          "type": "uint256"
        },
        {
          "name": "_value",
          "type": "uint256"
        }
      ],
      "name": "testAdd",
      "outputs": [],
      "payable": false,
      "stateMutability": "nonpayable",
      "type": "function"
    }
  ],
  "bytecode": "0x6080604052600160025534801561001557600080fd5b50611680806100256000396000f3006080604052600436106100e6576000357c0100000000000000000000000000000000000000000000000000000000900463ffffffff16806319cae462146100eb57806342e0857f1461011657806351bdd58514610176578063541a70b6146101a9578063557d13d7146102225780635bee29b71461024d5780635c8127371461028e5780636fc37811146102b95780637c3ffef2146102e45780637d7b00991461031b57806381c8149d146103ab57806390ab171e146103d657806394aef02214610401578063d5bb08041461043b578063ee97f7f314610468578063f289eaa5146104bf575b600080fd5b3480156100f757600080fd5b50610100610500565b6040518082815260200191505060405180910390f35b34801561012257600080fd5b5061015960048036038101908080359060200190820180359060200191909192939192939080359060200190929190505050610506565b604051808381526020018281526020019250505060405180910390f35b34801561018257600080fd5b5061018b610830565b60405180826000191660001916815260200191505060405180910390f35b3480156101b557600080fd5b50610220600480360381019080803590602001908201803590602001919091929391929390803573ffffffffffffffffffffffffffffffffffffffff16906020019092919080359060200190929190803590602001909291908060a001909192919290505050610836565b005b34801561022e57600080fd5b506102376108c9565b6040518082815260200191505060405180910390f35b34801561025957600080fd5b50610278600480360381019080803590602001909291905050506108cf565b6040518082815260200191505060405180910390f35b34801561029a57600080fd5b506102a3610a38565b6040518082815260200191505060405180910390f35b3480156102c557600080fd5b506102ce610a3e565b6040518082815260200191505060405180910390f35b3480156102f057600080fd5b506103196004803603810190808035906020019092919080359060200190929190505050610a44565b005b34801561032757600080fd5b50610330610a60565b6040518080602001828103825283818151815260200191508051906020019080838360005b83811015610370578082015181840152602081019050610355565b50505050905090810190601f16801561039d5780820380516001836020036101000a031916815260200191505b509250505060405180910390f35b3480156103b757600080fd5b506103c0610afe565b6040518082815260200191505060405180910390f35b3480156103e257600080fd5b506103eb610b04565b6040518082815260200191505060405180910390f35b34801561040d57600080fd5b50610416610b0a565b6040518083600019166000191681526020018281526020019250505060405180910390f35b34801561044757600080fd5b5061046660048036038101908080359060200190929190505050610b1b565b005b34801561047457600080fd5b5061047d610c51565b604051808273ffffffffffffffffffffffffffffffffffffffff1673ffffffffffffffffffffffffffffffffffffffff16815260200191505060405180910390f35b3480156104cb57600080fd5b506104ea60048036038101908080359060200190929190505050610c77565b6040518082815260200191505060405180910390f35b60025481565b600080600080543387876040518085600019166000191681526020018473ffffffffffffffffffffffffffffffffffffffff1673ffffffffffffffffffffffffffffffffffffffff166c010000000000000000000000000281526014018383808284378201915050945050505050604051809103902090506000600254826001900481151561059157fe5b0614151561059e57600080fd5b60046000815480929190600101919050555060408051908101604052808581526020013373ffffffffffffffffffffffffffffffffffffffff16815250600f6001600454036005811015156105ef57fe5b600202016000820151816000015560208201518160010160006101000a81548173ffffffffffffffffffffffffffffffffffffffff021916908373ffffffffffffffffffffffffffffffffffffffff1602179055509050507f7ecfc3facdaf96b974d20d3e0b1e6eeaf931f26e88598aaf589e2a9cf4cf991c3385604051808373ffffffffffffffffffffffffffffffffffffffff1673ffffffffffffffffffffffffffffffffffffffff1681526020018281526020019250505060405180910390a16005600454141561081d57600354600154420310156106e257600260008154809291906001019190505550610705565b6003546001544203111561070457600260008154809291906001900391905055505b5b603c4281151561071157fe5b064203600181905550610725600154610c91565b602c601954111561076657610746601660195461131c90919063ffffffff16565b601981905550601660195481151561075a57fe5b04600d8190555061076f565b6001600d819055505b3373ffffffffffffffffffffffffffffffffffffffff167f4cd36fb76975ab408e67b9ff3c17b4dd03112963aed18ccd8907a0c8b77daec260015486604051808381526020018281526020019250505060405180910390a2600060048190555085856000546001430340604051808585808284378201915050836000191660001916815260200182600019166000191681526020019450505050506040518091039020600081600019169055505b6004546001549250925050935093915050565b60005481565b600060015414151561084757600080fd5b4260018190555085856005919061085f92919061156f565b5083600760006101000a81548173ffffffffffffffffffffffffffffffffffffffff021916908373ffffffffffffffffffffffffffffffffffffffff16021790555082600681905550816003819055508060089060056108c09291906115ef565b50505050505050565b60195481565b600080600760009054906101000a900473ffffffffffffffffffffffffffffffffffffffff1690508073ffffffffffffffffffffffffffffffffffffffff1663a9059cbb600760009054906101000a900473ffffffffffffffffffffffffffffffffffffffff166006546040518363ffffffff167c0100000000000000000000000000000000000000000000000000000000028152600401808373ffffffffffffffffffffffffffffffffffffffff1673ffffffffffffffffffffffffffffffffffffffff16815260200182815260200192505050602060405180830381600087803b1580156109be57600080fd5b505af11580156109d2573d6000803e3d6000fd5b505050506040513d60208110156109e857600080fd5b81019080805190602001909291905050501515610a0457600080fd5b610a1b60065460195461133590919063ffffffff16565b50600e600084815260200190815260200160002054915050919050565b600d5481565b60035481565b80600e6000848152602001908152602001600020819055505050565b60058054600181600116156101000203166002900480601f016020809104026020016040519081016040528092919081815260200182805460018160011615610100020316600290048015610af65780601f10610acb57610100808354040283529160200191610af6565b820191906000526020600020905b815481529060010190602001808311610ad957829003601f168201915b505050505081565b60015481565b60065481565b600080600054600254915091509091565b6000600760009054906101000a900473ffffffffffffffffffffffffffffffffffffffff1690508073ffffffffffffffffffffffffffffffffffffffff1663a9059cbb600760009054906101000a900473ffffffffffffffffffffffffffffffffffffffff16846040518363ffffffff167c0100000000000000000000000000000000000000000000000000000000028152600401808373ffffffffffffffffffffffffffffffffffffffff1673ffffffffffffffffffffffffffffffffffffffff16815260200182815260200192505050602060405180830381600087803b158015610c0757600080fd5b505af1158015610c1b573d6000803e3d6000fd5b505050506040513d6020811015610c3157600080fd5b81019080805190602001909291905050501515610c4d57600080fd5b5050565b600760009054906101000a900473ffffffffffffffffffffffffffffffffffffffff1681565b600881600581101515610c8657fe5b016000915090505481565b6000610c9d600f611353565b600760009054906101000a900473ffffffffffffffffffffffffffffffffffffffff1690508073ffffffffffffffffffffffffffffffffffffffff1663ef67b978600f6002600581101515610cee57fe5b6002020160010160009054906101000a900473ffffffffffffffffffffffffffffffffffffffff16610d3c60086002600581101515610d2957fe5b0154600d5461153c90919063ffffffff16565b6040518363ffffffff167c0100000000000000000000000000000000000000000000000000000000028152600401808373ffffffffffffffffffffffffffffffffffffffff1673ffffffffffffffffffffffffffffffffffffffff16815260200182815260200192505050602060405180830381600087803b158015610dc157600080fd5b505af1158015610dd5573d6000803e3d6000fd5b505050506040513d6020811015610deb57600080fd5b8101908080519060200190929190505050508073ffffffffffffffffffffffffffffffffffffffff1663ef67b978600f6001600581101515610e2957fe5b6002020160010160009054906101000a900473ffffffffffffffffffffffffffffffffffffffff16610e7760086001600581101515610e6457fe5b0154600d5461153c90919063ffffffff16565b6040518363ffffffff167c0100000000000000000000000000000000000000000000000000000000028152600401808373ffffffffffffffffffffffffffffffffffffffff1673ffffffffffffffffffffffffffffffffffffffff16815260200182815260200192505050602060405180830381600087803b158015610efc57600080fd5b505af1158015610f10573d6000803e3d6000fd5b505050506040513d6020811015610f2657600080fd5b8101908080519060200190929190505050508073ffffffffffffffffffffffffffffffffffffffff1663ef67b978600f6003600581101515610f6457fe5b6002020160010160009054906101000a900473ffffffffffffffffffffffffffffffffffffffff16610fb260086003600581101515610f9f57fe5b0154600d5461153c90919063ffffffff16565b6040518363ffffffff167c0100000000000000000000000000000000000000000000000000000000028152600401808373ffffffffffffffffffffffffffffffffffffffff1673ffffffffffffffffffffffffffffffffffffffff16815260200182815260200192505050602060405180830381600087803b15801561103757600080fd5b505af115801561104b573d6000803e3d6000fd5b505050506040513d602081101561106157600080fd5b8101908080519060200190929190505050508073ffffffffffffffffffffffffffffffffffffffff1663ef67b978600f600060058110151561109f57fe5b6002020160010160009054906101000a900473ffffffffffffffffffffffffffffffffffffffff166110ed600860006005811015156110da57fe5b0154600d5461153c90919063ffffffff16565b6040518363ffffffff167c0100000000000000000000000000000000000000000000000000000000028152600401808373ffffffffffffffffffffffffffffffffffffffff1673ffffffffffffffffffffffffffffffffffffffff16815260200182815260200192505050602060405180830381600087803b15801561117257600080fd5b505af1158015611186573d6000803e3d6000fd5b505050506040513d602081101561119c57600080fd5b8101908080519060200190929190505050508073ffffffffffffffffffffffffffffffffffffffff1663ef67b978600f60046005811015156111da57fe5b6002020160010160009054906101000a900473ffffffffffffffffffffffffffffffffffffffff166112286008600460058110151561121557fe5b0154600d5461153c90919063ffffffff16565b6040518363ffffffff167c0100000000000000000000000000000000000000000000000000000000028152600401808373ffffffffffffffffffffffffffffffffffffffff1673ffffffffffffffffffffffffffffffffffffffff16815260200182815260200192505050602060405180830381600087803b1580156112ad57600080fd5b505af11580156112c1573d6000803e3d6000fd5b505050506040513d60208110156112d757600080fd5b810190808051906020019092919050505050600f60026005811015156112f957fe5b6002020160000154600e6000848152602001908152602001600020819055505050565b600082821115151561132a57fe5b818303905092915050565b600080828401905083811015151561134957fe5b8091505092915050565b600080600080600193505b60058410156114c157848460058110151561137557fe5b60020201600001549250848460058110151561138d57fe5b6002020160010160009054906101000a900473ffffffffffffffffffffffffffffffffffffffff1691506001840390505b600081101580156113e3575084816005811015156113d857fe5b600202016000015483105b156114285784816005811015156113f657fe5b6002020160000154856001830160058110151561140f57fe5b60020201600001819055508080600190039150506113be565b848160058110151561143657fe5b6002020160010160009054906101000a900473ffffffffffffffffffffffffffffffffffffffff16856001830160058110151561146f57fe5b6002020160010160006101000a81548173ffffffffffffffffffffffffffffffffffffffff021916908373ffffffffffffffffffffffffffffffffffffffff160217905550838060010194505061135e565b8285600183016005811015156114d357fe5b60020201600001819055508185600183016005811015156114f057fe5b6002020160010160006101000a81548173ffffffffffffffffffffffffffffffffffffffff021916908373ffffffffffffffffffffffffffffffffffffffff1602179055505050505050565b6000808284029050600084148061155d575082848281151561155a57fe5b04145b151561156557fe5b8091505092915050565b828054600181600116156101000203166002900490600052602060002090601f016020900481019282601f106115b057803560ff19168380011785556115de565b828001600101855582156115de579182015b828111156115dd5782358255916020019190600101906115c2565b5b5090506115eb919061162f565b5090565b826005810192821561161e579160200282015b8281111561161d578235825591602001919060010190611602565b5b50905061162b919061162f565b5090565b61165191905b8082111561164d576000816000905550600101611635565b5090565b905600a165627a7a72305820ed92d1d63b64161344de1841609df115038f455cb55c78c572cc271d1ab84f5d0029",
  "source": "pragma solidity ^0.4.21;\r\n\r\nimport \"./libraries/SafeMath.sol\";\r\nimport \"./Token.sol\";\r\nimport \"./ProofOfWorkToken.sol\";\r\n/**\r\n * @title Mineable Token\r\n *\r\n * @dev Turns a wallet into a mine for a specified ERC20 token\r\n */\r\ncontract OracleToken{\r\n\r\n    using SafeMath for uint256;\r\n    /*Variables*/\r\n\r\n    bytes32 public currentChallenge;\r\n    uint public timeOfLastProof; // time of last challenge solved\r\n    uint256 public difficulty = 1; // Difficulty starts low\r\n    uint public timeTarget;\r\n    uint count;\r\n    string public API;\r\n    uint public readFee;\r\n    address public master;\r\n    uint[5] public payoutStructure;\r\n    uint public  payoutMultiplier;\r\n    mapping(uint => uint) values;\r\n    Details[5] first_five;\r\n    uint public valuePool;\r\n    struct Details {\r\n        uint value;\r\n        address miner;\r\n    }\r\n \r\n\r\n    /*Events*/\r\n    event Mine(address indexed to,uint _time, uint value);\r\n    event NewValue(address _miner, uint _value);\r\n\r\n    /*Functions*/\r\n    /**\r\n     * @dev Constructor that sets the passed value as the token to be mineable.\r\n\r\n     */\r\n    function init(string _api,address _master,uint _readFee,uint _timeTarget,uint[5] _payoutStructure) external {\r\n\r\n        require (timeOfLastProof == 0);\r\n        timeOfLastProof = now;\r\n        API = _api;\r\n        master = _master;\r\n        readFee = _readFee;\r\n        timeTarget = _timeTarget;\r\n        payoutStructure = _payoutStructure;\r\n    }\r\n\r\n\r\n   function getVariables() public constant returns(bytes32, uint){\r\n    return (currentChallenge,difficulty);\r\n   }\r\n\r\n    /**\r\n     * @dev Proof of work to be done for mining\r\n     * @param nonce uint\r\n     * @return uint The amount rewarded\r\n     */\r\n\r\n    function proofOfWork(string nonce, uint value) external returns (uint256,uint256) {\r\n        bytes32 n = sha3(currentChallenge,msg.sender,nonce); // generate random hash based on input\r\n        require(uint(n) % difficulty == 0);\r\n        \r\n        count++;\r\n        first_five[count-1] = Details({\r\n            value: value,\r\n            miner: msg.sender\r\n        }); \r\n        emit NewValue(msg.sender,value);\r\n        if(count == 5) {\r\n            if (now - timeOfLastProof< timeTarget){\r\n                difficulty++;\r\n            }\r\n            else if (now - timeOfLastProof > timeTarget){\r\n                difficulty--;\r\n            }\r\n            timeOfLastProof = now - (now % 60);\r\n            pushValue(timeOfLastProof);\r\n            if(valuePool > 44) {\r\n                valuePool = valuePool.sub(22);\r\n                payoutMultiplier = valuePool / 22; //solidity should always round down\r\n            }\r\n            else{\r\n                payoutMultiplier = 1;\r\n            }\r\n            emit Mine(msg.sender,timeOfLastProof, value); // execute an event reflecting the change\r\n            count = 0;\r\n            currentChallenge = sha3(nonce, currentChallenge, block.blockhash(block.number - 1)); // Save hash for next proof\r\n        }\r\n        return (count,timeOfLastProof);\r\n    }\r\n\r\n\r\n    function retrieveData(uint _timestamp) external returns (uint) {\r\n        ProofOfWorkToken _master = ProofOfWorkToken(master);\r\n        require(_master.transfer(address(master),readFee));\r\n        valuePool.add(readFee);\r\n        return values[_timestamp];\r\n    }\r\n\r\n    function addToValuePool(uint _tip) public {\r\n        ProofOfWorkToken _master = ProofOfWorkToken(master);\r\n        require(_master.transfer(address(master),_tip));\r\n    }\r\n\r\n    function testAdd(uint _timestamp, uint _value) public{\r\n      values[_timestamp] = _value;\r\n    }\r\n\r\n    function insertionSort(Details[5] storage a)internal {\r\n       for (uint i = 1;i < a.length;i++){\r\n        uint temp = a[i].value;\r\n        address temp2 = a[i].miner;\r\n        uint j;\r\n        for (j = i -1; j >= 0 && temp < a[j].value; j--)\r\n            a[j+1].value = a[j].value;\r\n            a[j+1].miner = a[j].miner;\r\n       }\r\n            a[j+1].value = temp;\r\n            a[j+1].miner= temp2;\r\n    }\r\n\r\n        function pushValue(uint _time) internal {\r\n        insertionSort(first_five);\r\n        ProofOfWorkToken _master = ProofOfWorkToken(master);\r\n        _master.iTransfer(first_five[2].miner, (payoutMultiplier.mul(payoutStructure[2]))); // reward to winner grows over time\r\n        _master.iTransfer(first_five[1].miner,payoutMultiplier.mul(payoutStructure[1])); // reward to winner grows over time\r\n        _master.iTransfer(first_five[3].miner, payoutMultiplier.mul(payoutStructure[3])); // reward to winner grows over time\r\n        _master.iTransfer(first_five[0].miner, payoutMultiplier.mul(payoutStructure[0])); // reward to winner grows over time\r\n        _master.iTransfer(first_five[4].miner, payoutMultiplier.mul(payoutStructure[4])); // reward to winner grows over time\r\n        values[_time] = first_five[2].value;\r\n    }\r\n\r\n\r\n\r\n    \r\n}",
  "sourcePath": "C:\\company\\code\\mineableoracle\\contracts\\OracleToken.sol",
  "compiler": {
    "name": "solc",
    "version": "0.4.24+commit.e67f0147.Emscripten.clang"
  },
  "schemaVersion": "2.0.1",
  "updatedAt": "2018-08-09T01:38:46.992Z"
}