{
  "contractName": "OracleToken",
  "abi": [
    {
      "constant": false,
      "inputs": [
        {
          "name": "_spender",
          "type": "address"
        },
        {
          "name": "_amount",
          "type": "uint256"
        }
      ],
      "name": "approve",
      "outputs": [
        {
          "name": "",
          "type": "bool"
        }
      ],
      "payable": false,
      "stateMutability": "nonpayable",
      "type": "function"
    },
    {
      "constant": true,
      "inputs": [],
      "name": "totalSupply",
      "outputs": [
        {
          "name": "",
          "type": "uint256"
        }
      ],
      "payable": false,
      "stateMutability": "view",
      "type": "function"
    },
    {
      "constant": true,
      "inputs": [],
      "name": "difficulty",
      "outputs": [
        {
          "name": "",
          "type": "uint256"
        }
      ],
      "payable": false,
      "stateMutability": "view",
      "type": "function"
    },
    {
      "constant": false,
      "inputs": [
        {
          "name": "_from",
          "type": "address"
        },
        {
          "name": "_to",
          "type": "address"
        },
        {
          "name": "_amount",
          "type": "uint256"
        }
      ],
      "name": "transferFrom",
      "outputs": [
        {
          "name": "",
          "type": "bool"
        }
      ],
      "payable": false,
      "stateMutability": "nonpayable",
      "type": "function"
    },
    {
      "constant": true,
      "inputs": [],
      "name": "total_supply",
      "outputs": [
        {
          "name": "",
          "type": "uint256"
        }
      ],
      "payable": false,
      "stateMutability": "view",
      "type": "function"
    },
    {
      "constant": true,
      "inputs": [],
      "name": "currentChallenge",
      "outputs": [
        {
          "name": "",
          "type": "bytes32"
        }
      ],
      "payable": false,
      "stateMutability": "view",
      "type": "function"
    },
    {
      "constant": true,
      "inputs": [
        {
          "name": "_owner",
          "type": "address"
        }
      ],
      "name": "balanceOf",
      "outputs": [
        {
          "name": "bal",
          "type": "uint256"
        }
      ],
      "payable": false,
      "stateMutability": "view",
      "type": "function"
    },
    {
      "constant": true,
      "inputs": [],
      "name": "oracleName",
      "outputs": [
        {
          "name": "",
          "type": "string"
        }
      ],
      "payable": false,
      "stateMutability": "view",
      "type": "function"
    },
    {
      "constant": true,
      "inputs": [],
      "name": "timeOfLastProof",
      "outputs": [
        {
          "name": "",
          "type": "uint256"
        }
      ],
      "payable": false,
      "stateMutability": "view",
      "type": "function"
    },
    {
      "constant": false,
      "inputs": [
        {
          "name": "_to",
          "type": "address"
        },
        {
          "name": "_amount",
          "type": "uint256"
        }
      ],
      "name": "transfer",
      "outputs": [
        {
          "name": "",
          "type": "bool"
        }
      ],
      "payable": false,
      "stateMutability": "nonpayable",
      "type": "function"
    },
    {
      "constant": true,
      "inputs": [
        {
          "name": "_owner",
          "type": "address"
        },
        {
          "name": "_spender",
          "type": "address"
        }
      ],
      "name": "allowance",
      "outputs": [
        {
          "name": "",
          "type": "uint256"
        }
      ],
      "payable": false,
      "stateMutability": "view",
      "type": "function"
    },
    {
      "inputs": [],
      "payable": false,
      "stateMutability": "nonpayable",
      "type": "constructor"
    },
    {
      "anonymous": false,
      "inputs": [
        {
          "indexed": true,
          "name": "to",
          "type": "address"
        },
        {
          "indexed": false,
          "name": "_time",
          "type": "uint256"
        },
        {
          "indexed": false,
          "name": "value",
          "type": "uint256"
        }
      ],
      "name": "Mine",
      "type": "event"
    },
    {
      "anonymous": false,
      "inputs": [
        {
          "indexed": false,
          "name": "_miner",
          "type": "address"
        },
        {
          "indexed": false,
          "name": "_value",
          "type": "uint256"
        }
      ],
      "name": "NewValue",
      "type": "event"
    },
    {
      "anonymous": false,
      "inputs": [
        {
          "indexed": true,
          "name": "owner",
          "type": "address"
        },
        {
          "indexed": true,
          "name": "spender",
          "type": "address"
        },
        {
          "indexed": false,
          "name": "value",
          "type": "uint256"
        }
      ],
      "name": "Approval",
      "type": "event"
    },
    {
      "anonymous": false,
      "inputs": [
        {
          "indexed": true,
          "name": "from",
          "type": "address"
        },
        {
          "indexed": true,
          "name": "to",
          "type": "address"
        },
        {
          "indexed": false,
          "name": "value",
          "type": "uint256"
        }
      ],
      "name": "Transfer",
      "type": "event"
    },
    {
      "constant": true,
      "inputs": [],
      "name": "getVariables",
      "outputs": [
        {
          "name": "",
          "type": "bytes32"
        },
        {
          "name": "",
          "type": "uint256"
        }
      ],
      "payable": false,
      "stateMutability": "view",
      "type": "function"
    },
    {
      "constant": false,
      "inputs": [
        {
          "name": "newOwner",
          "type": "address"
        }
      ],
      "name": "transferOwnership",
      "outputs": [],
      "payable": false,
      "stateMutability": "nonpayable",
      "type": "function"
    },
    {
      "constant": false,
      "inputs": [
        {
          "name": "_difficulty",
          "type": "uint256"
        }
      ],
      "name": "setDifficulty",
      "outputs": [],
      "payable": false,
      "stateMutability": "nonpayable",
      "type": "function"
    },
    {
      "constant": false,
      "inputs": [
        {
          "name": "nonce",
          "type": "string"
        },
        {
          "name": "value",
          "type": "uint256"
        }
      ],
      "name": "proofOfWork",
      "outputs": [
        {
          "name": "",
          "type": "uint256"
        },
        {
          "name": "",
          "type": "uint256"
        }
      ],
      "payable": false,
      "stateMutability": "nonpayable",
      "type": "function"
    },
    {
      "constant": true,
      "inputs": [
        {
          "name": "_timestamp",
          "type": "uint256"
        }
      ],
      "name": "retrieveData",
      "outputs": [
        {
          "name": "",
          "type": "uint256"
        }
      ],
      "payable": false,
      "stateMutability": "view",
      "type": "function"
    },
    {
      "constant": false,
      "inputs": [
        {
          "name": "_timestamp",
          "type": "uint256"
        },
        {
          "name": "_value",
          "type": "uint256"
        }
      ],
      "name": "testAdd",
      "outputs": [],
      "payable": false,
      "stateMutability": "nonpayable",
      "type": "function"
    }
  ],
  "bytecode": "0x6080604052600160065534801561001557600080fd5b5033600160006101000a81548173ffffffffffffffffffffffffffffffffffffffff021916908373ffffffffffffffffffffffffffffffffffffffff1602179055506301406f40600081905550600054600260003073ffffffffffffffffffffffffffffffffffffffff1673ffffffffffffffffffffffffffffffffffffffff168152602001908152602001600020819055504260058190555033600860006101000a81548173ffffffffffffffffffffffffffffffffffffffff021916908373ffffffffffffffffffffffffffffffffffffffff160217905550611a48806100ff6000396000f3006080604052600436106100f1576000357c0100000000000000000000000000000000000000000000000000000000900463ffffffff168063095ea7b3146100f657806318160ddd1461015b57806319cae4621461018657806323b872dd146101b15780633940e9ee1461023657806342e0857f1461026157806351bdd585146102ef5780635bee29b714610322578063602512e11461036357806370a08231146103905780637c3ffef2146103e75780637d11f0201461041e57806381c8149d146104ae57806394aef022146104d9578063a9059cbb14610513578063dd62ed3e14610578578063f2fde38b146105ef575b600080fd5b34801561010257600080fd5b50610141600480360381019080803573ffffffffffffffffffffffffffffffffffffffff16906020019092919080359060200190929190505050610632565b604051808215151515815260200191505060405180910390f35b34801561016757600080fd5b50610170610724565b6040518082815260200191505060405180910390f35b34801561019257600080fd5b5061019b61072d565b6040518082815260200191505060405180910390f35b3480156101bd57600080fd5b5061021c600480360381019080803573ffffffffffffffffffffffffffffffffffffffff169060200190929190803573ffffffffffffffffffffffffffffffffffffffff16906020019092919080359060200190929190505050610733565b604051808215151515815260200191505060405180910390f35b34801561024257600080fd5b5061024b610b1f565b6040518082815260200191505060405180910390f35b34801561026d57600080fd5b506102d2600480360381019080803590602001908201803590602001908080601f016020809104026020016040519081016040528093929190818152602001838380828437820191505050505050919291929080359060200190929190505050610b25565b604051808381526020018281526020019250505060405180910390f35b3480156102fb57600080fd5b50610304610e5b565b60405180826000191660001916815260200191505060405180910390f35b34801561032e57600080fd5b5061034d60048036038101908080359060200190929190505050610e61565b6040518082815260200191505060405180910390f35b34801561036f57600080fd5b5061038e60048036038101908080359060200190929190505050610e7e565b005b34801561039c57600080fd5b506103d1600480360381019080803573ffffffffffffffffffffffffffffffffffffffff169060200190929190505050610ee4565b6040518082815260200191505060405180910390f35b3480156103f357600080fd5b5061041c6004803603810190808035906020019092919080359060200190929190505050610f2d565b005b34801561042a57600080fd5b50610433610f49565b6040518080602001828103825283818151815260200191508051906020019080838360005b83811015610473578082015181840152602081019050610458565b50505050905090810190601f1680156104a05780820380516001836020036101000a031916815260200191505b509250505060405180910390f35b3480156104ba57600080fd5b506104c3610fe7565b6040518082815260200191505060405180910390f35b3480156104e557600080fd5b506104ee610fed565b6040518083600019166000191681526020018281526020019250505060405180910390f35b34801561051f57600080fd5b5061055e600480360381019080803573ffffffffffffffffffffffffffffffffffffffff16906020019092919080359060200190929190505050610ffe565b604051808215151515815260200191505060405180910390f35b34801561058457600080fd5b506105d9600480360381019080803573ffffffffffffffffffffffffffffffffffffffff169060200190929190803573ffffffffffffffffffffffffffffffffffffffff169060200190929190505050611262565b6040518082815260200191505060405180910390f35b3480156105fb57600080fd5b50610630600480360381019080803573ffffffffffffffffffffffffffffffffffffffff1690602001909291905050506112e9565b005b600081600360003373ffffffffffffffffffffffffffffffffffffffff1673ffffffffffffffffffffffffffffffffffffffff16815260200190815260200160002060008573ffffffffffffffffffffffffffffffffffffffff1673ffffffffffffffffffffffffffffffffffffffff168152602001908152602001600020819055508273ffffffffffffffffffffffffffffffffffffffff163373ffffffffffffffffffffffffffffffffffffffff167f8c5be1e5ebec7d5bd14f71427d1e84f3dd0314c0f7b2291e5b200ac8c7c3b925846040518082815260200191505060405180910390a36001905092915050565b60008054905090565b60065481565b600081600260008673ffffffffffffffffffffffffffffffffffffffff1673ffffffffffffffffffffffffffffffffffffffff1681526020019081526020016000205410158015610800575081600360008673ffffffffffffffffffffffffffffffffffffffff1673ffffffffffffffffffffffffffffffffffffffff16815260200190815260200160002060003373ffffffffffffffffffffffffffffffffffffffff1673ffffffffffffffffffffffffffffffffffffffff1681526020019081526020016000205410155b801561080c5750600082115b80156108975750600260008473ffffffffffffffffffffffffffffffffffffffff1673ffffffffffffffffffffffffffffffffffffffff1681526020019081526020016000205482600260008673ffffffffffffffffffffffffffffffffffffffff1673ffffffffffffffffffffffffffffffffffffffff1681526020019081526020016000205401115b15610b135781600260008673ffffffffffffffffffffffffffffffffffffffff1673ffffffffffffffffffffffffffffffffffffffff1681526020019081526020016000205403600260008673ffffffffffffffffffffffffffffffffffffffff1673ffffffffffffffffffffffffffffffffffffffff1681526020019081526020016000208190555081600360008673ffffffffffffffffffffffffffffffffffffffff1673ffffffffffffffffffffffffffffffffffffffff16815260200190815260200160002060003373ffffffffffffffffffffffffffffffffffffffff1673ffffffffffffffffffffffffffffffffffffffff1681526020019081526020016000205403600360008673ffffffffffffffffffffffffffffffffffffffff1673ffffffffffffffffffffffffffffffffffffffff16815260200190815260200160002060003373ffffffffffffffffffffffffffffffffffffffff1673ffffffffffffffffffffffffffffffffffffffff1681526020019081526020016000208190555081600260008573ffffffffffffffffffffffffffffffffffffffff1673ffffffffffffffffffffffffffffffffffffffff1681526020019081526020016000205401600260008573ffffffffffffffffffffffffffffffffffffffff1673ffffffffffffffffffffffffffffffffffffffff168152602001908152602001600020819055508273ffffffffffffffffffffffffffffffffffffffff168473ffffffffffffffffffffffffffffffffffffffff167fddf252ad1be2c89b69c2b068fc378daa952ba7f163c4a11628f55a4df523b3ef846040518082815260200191505060405180910390a360019050610b18565b600090505b9392505050565b60005481565b600080600060045433866040518084600019166000191681526020018373ffffffffffffffffffffffffffffffffffffffff1673ffffffffffffffffffffffffffffffffffffffff166c0100000000000000000000000002815260140182805190602001908083835b602083101515610bb35780518252602082019150602081019050602083039250610b8e565b6001836020036101000a03801982511681845116808217855250505050505090500193505050506040518091039020905060006006548260019004811515610bf757fe5b06141515610c0457600080fd5b603c42811515610c1057fe5b0642036005819055506007600081548092919060010191905055506005600754111515610d3a5760408051908101604052808581526020013373ffffffffffffffffffffffffffffffffffffffff16815250600b600160075403600581101515610c7657fe5b600202016000820151816000015560208201518160010160006101000a81548173ffffffffffffffffffffffffffffffffffffffff021916908373ffffffffffffffffffffffffffffffffffffffff1602179055509050507f7ecfc3facdaf96b974d20d3e0b1e6eeaf931f26e88598aaf589e2a9cf4cf991c3385604051808373ffffffffffffffffffffffffffffffffffffffff1673ffffffffffffffffffffffffffffffffffffffff1681526020018281526020019250505060405180910390a15b60056007541415610db557610d506005546113c5565b3373ffffffffffffffffffffffffffffffffffffffff167f4cd36fb76975ab408e67b9ff3c17b4dd03112963aed18ccd8907a0c8b77daec260055486604051808381526020018281526020019250505060405180910390a26000600781905550610e49565b8460045460014303406040518084805190602001908083835b602083101515610df35780518252602082019150602081019050602083039250610dce565b6001836020036101000a0380198251168184511680821785525050505050509050018360001916600019168152602001826000191660001916815260200193505050506040518091039020600481600019169055505b60075460055492509250509250929050565b60045481565b6000600a6000838152602001908152602001600020549050919050565b600860009054906101000a900473ffffffffffffffffffffffffffffffffffffffff1673ffffffffffffffffffffffffffffffffffffffff163373ffffffffffffffffffffffffffffffffffffffff16141515610eda57600080fd5b8060068190555050565b6000600260008373ffffffffffffffffffffffffffffffffffffffff1673ffffffffffffffffffffffffffffffffffffffff168152602001908152602001600020549050919050565b80600a6000848152602001908152602001600020819055505050565b60098054600181600116156101000203166002900480601f016020809104026020016040519081016040528092919081815260200182805460018160011615610100020316600290048015610fdf5780601f10610fb457610100808354040283529160200191610fdf565b820191906000526020600020905b815481529060010190602001808311610fc257829003601f168201915b505050505081565b60055481565b600080600454600654915091509091565b600081600260003373ffffffffffffffffffffffffffffffffffffffff1673ffffffffffffffffffffffffffffffffffffffff168152602001908152602001600020541015801561104f5750600082115b80156110da5750600260008473ffffffffffffffffffffffffffffffffffffffff1673ffffffffffffffffffffffffffffffffffffffff1681526020019081526020016000205482600260008673ffffffffffffffffffffffffffffffffffffffff1673ffffffffffffffffffffffffffffffffffffffff1681526020019081526020016000205401115b156112575781600260003373ffffffffffffffffffffffffffffffffffffffff1673ffffffffffffffffffffffffffffffffffffffff1681526020019081526020016000205403600260003373ffffffffffffffffffffffffffffffffffffffff1673ffffffffffffffffffffffffffffffffffffffff1681526020019081526020016000208190555081600260008573ffffffffffffffffffffffffffffffffffffffff1673ffffffffffffffffffffffffffffffffffffffff1681526020019081526020016000205401600260008573ffffffffffffffffffffffffffffffffffffffff1673ffffffffffffffffffffffffffffffffffffffff168152602001908152602001600020819055508273ffffffffffffffffffffffffffffffffffffffff163373ffffffffffffffffffffffffffffffffffffffff167fddf252ad1be2c89b69c2b068fc378daa952ba7f163c4a11628f55a4df523b3ef846040518082815260200191505060405180910390a36001905061125c565b600090505b92915050565b6000600360008473ffffffffffffffffffffffffffffffffffffffff1673ffffffffffffffffffffffffffffffffffffffff16815260200190815260200160002060008373ffffffffffffffffffffffffffffffffffffffff1673ffffffffffffffffffffffffffffffffffffffff16815260200190815260200160002054905092915050565b600860009054906101000a900473ffffffffffffffffffffffffffffffffffffffff1673ffffffffffffffffffffffffffffffffffffffff163373ffffffffffffffffffffffffffffffffffffffff1614151561134557600080fd5b600073ffffffffffffffffffffffffffffffffffffffff168173ffffffffffffffffffffffffffffffffffffffff161415151561138157600080fd5b80600860006101000a81548173ffffffffffffffffffffffffffffffffffffffff021916908373ffffffffffffffffffffffffffffffffffffffff16021790555050565b6113d3600b60006004611554565b611415600b60026005811015156113e657fe5b6002020160010160009054906101000a900473ffffffffffffffffffffffffffffffffffffffff16600a6117b8565b50611458600b600160058110151561142957fe5b6002020160010160009054906101000a900473ffffffffffffffffffffffffffffffffffffffff1660056117b8565b5061149b600b600360058110151561146c57fe5b6002020160010160009054906101000a900473ffffffffffffffffffffffffffffffffffffffff1660056117b8565b506114de600b60006005811015156114af57fe5b6002020160010160009054906101000a900473ffffffffffffffffffffffffffffffffffffffff1660016117b8565b50611521600b60046005811015156114f257fe5b6002020160010160009054906101000a900473ffffffffffffffffffffffffffffffffffffffff1660016117b8565b50600b600260058110151561153257fe5b6002020160000154600a60008381526020019081526020016000208190555050565b600080600084925083915085600286860381151561156e57fe5b04860160058110151561157d57fe5b600202016000015490505b8183111515611788575b8086846005811015156115a157fe5b600202016000015410156115bc578280600101935050611592565b5b85826005811015156115cb57fe5b60020201600001548110156115e8578180600190039250506115bd565b81831115156117835785826005811015156115ff57fe5b6002020160000154868460058110151561161557fe5b6002020160000154878560058110151561162b57fe5b600202016000016000898660058110151561164257fe5b600202016000016000849190505583919050555050858260058110151561166557fe5b6002020160010160009054906101000a900473ffffffffffffffffffffffffffffffffffffffff16868460058110151561169b57fe5b6002020160010160009054906101000a900473ffffffffffffffffffffffffffffffffffffffff1687856005811015156116d157fe5b60020201600101600089866005811015156116e857fe5b6002020160010160008491906101000a81548173ffffffffffffffffffffffffffffffffffffffff021916908373ffffffffffffffffffffffffffffffffffffffff1602179055508391906101000a81548173ffffffffffffffffffffffffffffffffffffffff021916908373ffffffffffffffffffffffffffffffffffffffff160217905550505082806001019350508180600190039250505b611588565b8185101561179c5761179b868684611554565b5b838310156117b0576117af868486611554565b5b505050505050565b600081600260003073ffffffffffffffffffffffffffffffffffffffff1673ffffffffffffffffffffffffffffffffffffffff16815260200190815260200160002054101580156118095750600082115b80156118945750600260008473ffffffffffffffffffffffffffffffffffffffff1673ffffffffffffffffffffffffffffffffffffffff1681526020019081526020016000205482600260008673ffffffffffffffffffffffffffffffffffffffff1673ffffffffffffffffffffffffffffffffffffffff1681526020019081526020016000205401115b15611a115781600260003073ffffffffffffffffffffffffffffffffffffffff1673ffffffffffffffffffffffffffffffffffffffff1681526020019081526020016000205403600260003073ffffffffffffffffffffffffffffffffffffffff1673ffffffffffffffffffffffffffffffffffffffff1681526020019081526020016000208190555081600260008573ffffffffffffffffffffffffffffffffffffffff1673ffffffffffffffffffffffffffffffffffffffff1681526020019081526020016000205401600260008573ffffffffffffffffffffffffffffffffffffffff1673ffffffffffffffffffffffffffffffffffffffff168152602001908152602001600020819055508273ffffffffffffffffffffffffffffffffffffffff163073ffffffffffffffffffffffffffffffffffffffff167fddf252ad1be2c89b69c2b068fc378daa952ba7f163c4a11628f55a4df523b3ef846040518082815260200191505060405180910390a360019050611a16565b600090505b929150505600a165627a7a723058205471e249161f1c2fcb4dc10b693c2a8cc482f9dbe218242734f475ec9825c3d50029",
  "source": "pragma solidity ^0.4.21;\r\n\r\n\r\nimport \"./Token.sol\";\r\n/**\r\n * @title Mineable Token\r\n *\r\n * @dev Turns a wallet into a mine for a specified ERC20 token\r\n */\r\ncontract OracleToken is Token {\r\n\r\n    \r\n    /*Variables*/\r\n\r\n    bytes32 public currentChallenge;\r\n    uint public timeOfLastProof; // time of last challenge solved\r\n    uint256 public difficulty = 1; // Difficulty starts low\r\n    uint count;\r\n    address owner;\r\n    string public oracleName;\r\n    mapping(uint => uint) values;\r\n    Details[5] first_five;\r\n    struct Details {\r\n        uint value;\r\n        address miner;\r\n    }\r\n \r\n\r\n    /*Events*/\r\n    event Mine(address indexed to,uint _time, uint value);\r\n    event NewValue(address _miner, uint _value);\r\n\r\n    /*Functions*/\r\n    /**\r\n     * @dev Constructor that sets the passed value as the token to be mineable.\r\n\r\n     */\r\n    constructor() public{\r\n        timeOfLastProof = now;\r\n        owner = msg.sender;\r\n    }\r\n\r\n    modifier onlyOwner() {\r\n    require(msg.sender == owner);\r\n    _;\r\n   }\r\n\r\n   function getVariables() public constant returns(bytes32, uint){\r\n    return (currentChallenge,difficulty);\r\n   }\r\n  /**\r\n   * @dev Allows the current owner to transfer control of the contract to a newOwner.\r\n   * @param newOwner The address to transfer ownership to.\r\n   */\r\n  function transferOwnership(address newOwner) onlyOwner public{\r\n    require(newOwner != address(0));\r\n    owner = newOwner;\r\n  }\r\n\r\n    /**\r\n     * @dev Change the difficulty\r\n     * @param _difficulty uint256 difficulty to be set\r\n     */\r\n    function setDifficulty(uint256 _difficulty) onlyOwner public{\r\n        difficulty = _difficulty;\r\n    }\r\n    /**\r\n     * @dev Proof of work to be done for mining\r\n     * @param nonce uint\r\n     * @return uint The amount rewarded\r\n     */\r\n\r\n    function proofOfWork(string nonce, uint value) returns (uint256,uint256) {\r\n        bytes32 n = sha3(currentChallenge,msg.sender,nonce); // generate random hash based on input\r\n        if (uint(n) % difficulty !=0) revert();\r\n        timeOfLastProof = now - (now % 60);\r\n        count++;\r\n        if (count<=5) {\r\n           first_five[count-1] = Details({\r\n                value: value,\r\n                miner: msg.sender\r\n            });  \r\n           emit NewValue(msg.sender,value);\r\n        } \r\n        if(count == 5) {\r\n            pushValue(timeOfLastProof);\r\n            emit Mine(msg.sender,timeOfLastProof, value); // execute an event reflecting the change\r\n            count = 0;\r\n        }\r\n        else {\r\n        currentChallenge = sha3(nonce, currentChallenge, block.blockhash(block.number - 1)); // Save hash for next proof\r\n        }\r\n        return (count,timeOfLastProof);\r\n    }\r\n\r\n    function pushValue(uint _time) internal {\r\n        quickSort(first_five,0,4);\r\n        iTransfer(first_five[2].miner, 10); // reward to winner grows over time\r\n        iTransfer(first_five[1].miner, 5); // reward to winner grows over time\r\n        iTransfer(first_five[3].miner, 5); // reward to winner grows over time\r\n        iTransfer(first_five[0].miner, 1); // reward to winner grows over time\r\n        iTransfer(first_five[4].miner, 1); // reward to winner grows over time\r\n        values[_time] = first_five[2].value;\r\n    }\r\n\r\n    function retrieveData(uint _timestamp) public constant returns (uint) {\r\n        return values[_timestamp];\r\n    }\r\n\r\n\r\n    function testAdd(uint _timestamp, uint _value) public{\r\n      values[_timestamp] = _value;\r\n    }\r\n\r\n     function quickSort(Details[5] storage arr, uint left, uint right) internal {\r\n        uint i = left;\r\n        uint j = right;\r\n        uint pivot = arr[left + (right - left) / 2].value;\r\n        while (i <= j) {\r\n            while (arr[i].value < pivot) i++;\r\n            while (pivot < arr[j].value) j--;\r\n            if (i <= j) {\r\n                (arr[i].value, arr[j].value) = (arr[j].value, arr[i].value);\r\n                (arr[i].miner, arr[j].miner) = (arr[j].miner, arr[i].miner);\r\n                i++;\r\n                j--;\r\n            }\r\n        }\r\n        if (left < j)\r\n            quickSort(arr, left, j);\r\n        if (i < right)\r\n            quickSort(arr, i, right);\r\n    }\r\n\r\n\r\n    \r\n}",
  "sourcePath": "C:\\company\\code\\angelhackteam\\contracts\\OracleToken.sol",
  "compiler": {
    "name": "solc",
    "version": "0.4.24+commit.e67f0147.Emscripten.clang"
  },
  "schemaVersion": "2.0.0",
  "updatedAt": "2018-07-08T16:50:08.889Z"
}