{
  "contractName": "OracleToken",
  "abi": [
    {
      "constant": true,
      "inputs": [],
      "name": "difficulty",
      "outputs": [
        {
          "name": "",
          "type": "uint256"
        }
      ],
      "payable": false,
      "stateMutability": "view",
      "type": "function"
    },
    {
      "constant": true,
      "inputs": [],
      "name": "currentChallenge",
      "outputs": [
        {
          "name": "",
          "type": "bytes32"
        }
      ],
      "payable": false,
      "stateMutability": "view",
      "type": "function"
    },
    {
      "constant": true,
      "inputs": [],
      "name": "valuePool",
      "outputs": [
        {
          "name": "",
          "type": "uint256"
        }
      ],
      "payable": false,
      "stateMutability": "view",
      "type": "function"
    },
    {
      "constant": true,
      "inputs": [],
      "name": "payoutMultiplier",
      "outputs": [
        {
          "name": "",
          "type": "uint256"
        }
      ],
      "payable": false,
      "stateMutability": "view",
      "type": "function"
    },
    {
      "constant": true,
      "inputs": [],
      "name": "timeTarget",
      "outputs": [
        {
          "name": "",
          "type": "uint256"
        }
      ],
      "payable": false,
      "stateMutability": "view",
      "type": "function"
    },
    {
      "constant": true,
      "inputs": [],
      "name": "API",
      "outputs": [
        {
          "name": "",
          "type": "string"
        }
      ],
      "payable": false,
      "stateMutability": "view",
      "type": "function"
    },
    {
      "constant": true,
      "inputs": [],
      "name": "timeOfLastProof",
      "outputs": [
        {
          "name": "",
          "type": "uint256"
        }
      ],
      "payable": false,
      "stateMutability": "view",
      "type": "function"
    },
    {
      "constant": true,
      "inputs": [],
      "name": "readFee",
      "outputs": [
        {
          "name": "",
          "type": "uint256"
        }
      ],
      "payable": false,
      "stateMutability": "view",
      "type": "function"
    },
    {
      "constant": true,
      "inputs": [],
      "name": "master",
      "outputs": [
        {
          "name": "",
          "type": "address"
        }
      ],
      "payable": false,
      "stateMutability": "view",
      "type": "function"
    },
    {
      "constant": true,
      "inputs": [
        {
          "name": "",
          "type": "uint256"
        }
      ],
      "name": "payoutStructure",
      "outputs": [
        {
          "name": "",
          "type": "uint256"
        }
      ],
      "payable": false,
      "stateMutability": "view",
      "type": "function"
    },
    {
      "anonymous": false,
      "inputs": [
        {
          "indexed": true,
          "name": "to",
          "type": "address"
        },
        {
          "indexed": false,
          "name": "_time",
          "type": "uint256"
        },
        {
          "indexed": false,
          "name": "value",
          "type": "uint256"
        }
      ],
      "name": "Mine",
      "type": "event"
    },
    {
      "anonymous": false,
      "inputs": [
        {
          "indexed": false,
          "name": "_miner",
          "type": "address"
        },
        {
          "indexed": false,
          "name": "_value",
          "type": "uint256"
        }
      ],
      "name": "NewValue",
      "type": "event"
    },
    {
      "constant": false,
      "inputs": [
        {
          "name": "_api",
          "type": "string"
        },
        {
          "name": "_master",
          "type": "address"
        },
        {
          "name": "_readFee",
          "type": "uint256"
        },
        {
          "name": "_timeTarget",
          "type": "uint256"
        },
        {
          "name": "_payoutStructure",
          "type": "uint256[5]"
        }
      ],
      "name": "init",
      "outputs": [],
      "payable": false,
      "stateMutability": "nonpayable",
      "type": "function"
    },
    {
      "constant": true,
      "inputs": [],
      "name": "getVariables",
      "outputs": [
        {
          "name": "",
          "type": "bytes32"
        },
        {
          "name": "",
          "type": "uint256"
        }
      ],
      "payable": false,
      "stateMutability": "view",
      "type": "function"
    },
    {
      "constant": false,
      "inputs": [
        {
          "name": "nonce",
          "type": "string"
        },
        {
          "name": "value",
          "type": "uint256"
        }
      ],
      "name": "proofOfWork",
      "outputs": [
        {
          "name": "",
          "type": "uint256"
        },
        {
          "name": "",
          "type": "uint256"
        }
      ],
      "payable": false,
      "stateMutability": "nonpayable",
      "type": "function"
    },
    {
      "constant": false,
      "inputs": [
        {
          "name": "_timestamp",
          "type": "uint256"
        }
      ],
      "name": "retrieveData",
      "outputs": [
        {
          "name": "",
          "type": "uint256"
        }
      ],
      "payable": false,
      "stateMutability": "nonpayable",
      "type": "function"
    },
    {
      "constant": false,
      "inputs": [
        {
          "name": "_timestamp",
          "type": "uint256"
        }
      ],
      "name": "isData",
      "outputs": [
        {
          "name": "",
          "type": "bool"
        }
      ],
      "payable": false,
      "stateMutability": "nonpayable",
      "type": "function"
    },
    {
      "constant": false,
      "inputs": [],
      "name": "getLastQuery",
      "outputs": [
        {
          "name": "",
          "type": "uint256"
        }
      ],
      "payable": false,
      "stateMutability": "nonpayable",
      "type": "function"
    },
    {
      "constant": false,
      "inputs": [
        {
          "name": "_tip",
          "type": "uint256"
        }
      ],
      "name": "addToValuePool",
      "outputs": [],
      "payable": false,
      "stateMutability": "nonpayable",
      "type": "function"
    }
  ],
  "bytecode": "0x6080604052600160025534801561001557600080fd5b506116e6806100256000396000f3006080604052600436106100f1576000357c0100000000000000000000000000000000000000000000000000000000900463ffffffff16806319cae462146100f657806342e0857f1461012157806351bdd58514610181578063541a70b6146101b4578063557d13d71461022d5780635bee29b7146102585780635c812737146102995780636fc37811146102c45780637d7b0099146102ef57806381c8149d1461037f57806390ab171e146103aa57806394aef022146103d5578063c95606321461040f578063d5bb080414610454578063dfba509514610481578063ee97f7f3146104ac578063f289eaa514610503575b600080fd5b34801561010257600080fd5b5061010b610544565b6040518082815260200191505060405180910390f35b34801561012d57600080fd5b506101646004803603810190808035906020019082018035906020019190919293919293908035906020019092919050505061054a565b604051808381526020018281526020019250505060405180910390f35b34801561018d57600080fd5b50610196610881565b60405180826000191660001916815260200191505060405180910390f35b3480156101c057600080fd5b5061022b600480360381019080803590602001908201803590602001919091929391929390803573ffffffffffffffffffffffffffffffffffffffff16906020019092919080359060200190929190803590602001909291908060a001909192919290505050610887565b005b34801561023957600080fd5b5061024261091a565b6040518082815260200191505060405180910390f35b34801561026457600080fd5b5061028360048036038101908080359060200190929190505050610920565b6040518082815260200191505060405180910390f35b3480156102a557600080fd5b506102ae610a89565b6040518082815260200191505060405180910390f35b3480156102d057600080fd5b506102d9610a8f565b6040518082815260200191505060405180910390f35b3480156102fb57600080fd5b50610304610a95565b6040518080602001828103825283818151815260200191508051906020019080838360005b83811015610344578082015181840152602081019050610329565b50505050905090810190601f1680156103715780820380516001836020036101000a031916815260200191505b509250505060405180910390f35b34801561038b57600080fd5b50610394610b33565b6040518082815260200191505060405180910390f35b3480156103b657600080fd5b506103bf610b39565b6040518082815260200191505060405180910390f35b3480156103e157600080fd5b506103ea610b3f565b6040518083600019166000191681526020018281526020019250505060405180910390f35b34801561041b57600080fd5b5061043a60048036038101908080359060200190929190505050610b50565b604051808215151515815260200191505060405180910390f35b34801561046057600080fd5b5061047f60048036038101908080359060200190929190505050610b6f565b005b34801561048d57600080fd5b50610496610ca5565b6040518082815260200191505060405180910390f35b3480156104b857600080fd5b506104c1610cb7565b604051808273ffffffffffffffffffffffffffffffffffffffff1673ffffffffffffffffffffffffffffffffffffffff16815260200191505060405180910390f35b34801561050f57600080fd5b5061052e60048036038101908080359060200190929190505050610cdd565b6040518082815260200191505060405180910390f35b60025481565b600080600080543387876040518085600019166000191681526020018473ffffffffffffffffffffffffffffffffffffffff1673ffffffffffffffffffffffffffffffffffffffff166c01000000000000000000000000028152601401838380828437820191505094505050505060405180910390209050600060025482600190048115156105d557fe5b061480156105e35750600084115b15156105ee57600080fd5b60046000815480929190600101919050555060408051908101604052808581526020013373ffffffffffffffffffffffffffffffffffffffff16815250600f60016004540360058110151561063f57fe5b600202016000820151816000015560208201518160010160006101000a81548173ffffffffffffffffffffffffffffffffffffffff021916908373ffffffffffffffffffffffffffffffffffffffff1602179055509050507f7ecfc3facdaf96b974d20d3e0b1e6eeaf931f26e88598aaf589e2a9cf4cf991c3385604051808373ffffffffffffffffffffffffffffffffffffffff1673ffffffffffffffffffffffffffffffffffffffff1681526020018281526020019250505060405180910390a16005600454141561086e576003546001544203101561073257600260008154809291906001019190505550610755565b6003546001544203111561075457600260008154809291906001900391905055505b5b6003544281151561076257fe5b064203600181905550610776600154610cf7565b602c60195411156107b757610797601660195461138290919063ffffffff16565b60198190555060166019548115156107ab57fe5b04600d819055506107c0565b6001600d819055505b3373ffffffffffffffffffffffffffffffffffffffff167f4cd36fb76975ab408e67b9ff3c17b4dd03112963aed18ccd8907a0c8b77daec260015486604051808381526020018281526020019250505060405180910390a2600060048190555085856000546001430340604051808585808284378201915050836000191660001916815260200182600019166000191681526020019450505050506040518091039020600081600019169055505b6004546001549250925050935093915050565b60005481565b600060015414151561089857600080fd5b426001819055508585600591906108b09291906115d5565b5083600760006101000a81548173ffffffffffffffffffffffffffffffffffffffff021916908373ffffffffffffffffffffffffffffffffffffffff1602179055508260068190555081600381905550806008906005610911929190611655565b50505050505050565b60195481565b600080600760009054906101000a900473ffffffffffffffffffffffffffffffffffffffff1690508073ffffffffffffffffffffffffffffffffffffffff1663a9059cbb600760009054906101000a900473ffffffffffffffffffffffffffffffffffffffff166006546040518363ffffffff167c0100000000000000000000000000000000000000000000000000000000028152600401808373ffffffffffffffffffffffffffffffffffffffff1673ffffffffffffffffffffffffffffffffffffffff16815260200182815260200192505050602060405180830381600087803b158015610a0f57600080fd5b505af1158015610a23573d6000803e3d6000fd5b505050506040513d6020811015610a3957600080fd5b81019080805190602001909291905050501515610a5557600080fd5b610a6c60065460195461139b90919063ffffffff16565b50600e600084815260200190815260200160002054915050919050565b600d5481565b60035481565b60058054600181600116156101000203166002900480601f016020809104026020016040519081016040528092919081815260200182805460018160011615610100020316600290048015610b2b5780601f10610b0057610100808354040283529160200191610b2b565b820191906000526020600020905b815481529060010190602001808311610b0e57829003601f168201915b505050505081565b60015481565b60065481565b600080600054600254915091509091565b600080600e600084815260200190815260200160002054119050919050565b6000600760009054906101000a900473ffffffffffffffffffffffffffffffffffffffff1690508073ffffffffffffffffffffffffffffffffffffffff1663a9059cbb600760009054906101000a900473ffffffffffffffffffffffffffffffffffffffff16846040518363ffffffff167c0100000000000000000000000000000000000000000000000000000000028152600401808373ffffffffffffffffffffffffffffffffffffffff1673ffffffffffffffffffffffffffffffffffffffff16815260200182815260200192505050602060405180830381600087803b158015610c5b57600080fd5b505af1158015610c6f573d6000803e3d6000fd5b505050506040513d6020811015610c8557600080fd5b81019080805190602001909291905050501515610ca157600080fd5b5050565b6000610cb2600154610920565b905090565b600760009054906101000a900473ffffffffffffffffffffffffffffffffffffffff1681565b600881600581101515610cec57fe5b016000915090505481565b6000610d03600f6113b9565b600760009054906101000a900473ffffffffffffffffffffffffffffffffffffffff1690508073ffffffffffffffffffffffffffffffffffffffff1663ef67b978600f6002600581101515610d5457fe5b6002020160010160009054906101000a900473ffffffffffffffffffffffffffffffffffffffff16610da260086002600581101515610d8f57fe5b0154600d546115a290919063ffffffff16565b6040518363ffffffff167c0100000000000000000000000000000000000000000000000000000000028152600401808373ffffffffffffffffffffffffffffffffffffffff1673ffffffffffffffffffffffffffffffffffffffff16815260200182815260200192505050602060405180830381600087803b158015610e2757600080fd5b505af1158015610e3b573d6000803e3d6000fd5b505050506040513d6020811015610e5157600080fd5b8101908080519060200190929190505050508073ffffffffffffffffffffffffffffffffffffffff1663ef67b978600f6001600581101515610e8f57fe5b6002020160010160009054906101000a900473ffffffffffffffffffffffffffffffffffffffff16610edd60086001600581101515610eca57fe5b0154600d546115a290919063ffffffff16565b6040518363ffffffff167c0100000000000000000000000000000000000000000000000000000000028152600401808373ffffffffffffffffffffffffffffffffffffffff1673ffffffffffffffffffffffffffffffffffffffff16815260200182815260200192505050602060405180830381600087803b158015610f6257600080fd5b505af1158015610f76573d6000803e3d6000fd5b505050506040513d6020811015610f8c57600080fd5b8101908080519060200190929190505050508073ffffffffffffffffffffffffffffffffffffffff1663ef67b978600f6003600581101515610fca57fe5b6002020160010160009054906101000a900473ffffffffffffffffffffffffffffffffffffffff166110186008600360058110151561100557fe5b0154600d546115a290919063ffffffff16565b6040518363ffffffff167c0100000000000000000000000000000000000000000000000000000000028152600401808373ffffffffffffffffffffffffffffffffffffffff1673ffffffffffffffffffffffffffffffffffffffff16815260200182815260200192505050602060405180830381600087803b15801561109d57600080fd5b505af11580156110b1573d6000803e3d6000fd5b505050506040513d60208110156110c757600080fd5b8101908080519060200190929190505050508073ffffffffffffffffffffffffffffffffffffffff1663ef67b978600f600060058110151561110557fe5b6002020160010160009054906101000a900473ffffffffffffffffffffffffffffffffffffffff166111536008600060058110151561114057fe5b0154600d546115a290919063ffffffff16565b6040518363ffffffff167c0100000000000000000000000000000000000000000000000000000000028152600401808373ffffffffffffffffffffffffffffffffffffffff1673ffffffffffffffffffffffffffffffffffffffff16815260200182815260200192505050602060405180830381600087803b1580156111d857600080fd5b505af11580156111ec573d6000803e3d6000fd5b505050506040513d602081101561120257600080fd5b8101908080519060200190929190505050508073ffffffffffffffffffffffffffffffffffffffff1663ef67b978600f600460058110151561124057fe5b6002020160010160009054906101000a900473ffffffffffffffffffffffffffffffffffffffff1661128e6008600460058110151561127b57fe5b0154600d546115a290919063ffffffff16565b6040518363ffffffff167c0100000000000000000000000000000000000000000000000000000000028152600401808373ffffffffffffffffffffffffffffffffffffffff1673ffffffffffffffffffffffffffffffffffffffff16815260200182815260200192505050602060405180830381600087803b15801561131357600080fd5b505af1158015611327573d6000803e3d6000fd5b505050506040513d602081101561133d57600080fd5b810190808051906020019092919050505050600f600260058110151561135f57fe5b6002020160000154600e6000848152602001908152602001600020819055505050565b600082821115151561139057fe5b818303905092915050565b60008082840190508381101515156113af57fe5b8091505092915050565b600080600080600193505b60058410156115275784846005811015156113db57fe5b6002020160000154925084846005811015156113f357fe5b6002020160010160009054906101000a900473ffffffffffffffffffffffffffffffffffffffff1691506001840390505b600081101580156114495750848160058110151561143e57fe5b600202016000015483105b1561148e57848160058110151561145c57fe5b6002020160000154856001830160058110151561147557fe5b6002020160000181905550808060019003915050611424565b848160058110151561149c57fe5b6002020160010160009054906101000a900473ffffffffffffffffffffffffffffffffffffffff1685600183016005811015156114d557fe5b6002020160010160006101000a81548173ffffffffffffffffffffffffffffffffffffffff021916908373ffffffffffffffffffffffffffffffffffffffff16021790555083806001019450506113c4565b82856001830160058110151561153957fe5b600202016000018190555081856001830160058110151561155657fe5b6002020160010160006101000a81548173ffffffffffffffffffffffffffffffffffffffff021916908373ffffffffffffffffffffffffffffffffffffffff1602179055505050505050565b600080828402905060008414806115c357508284828115156115c057fe5b04145b15156115cb57fe5b8091505092915050565b828054600181600116156101000203166002900490600052602060002090601f016020900481019282601f1061161657803560ff1916838001178555611644565b82800160010185558215611644579182015b82811115611643578235825591602001919060010190611628565b5b5090506116519190611695565b5090565b8260058101928215611684579160200282015b82811115611683578235825591602001919060010190611668565b5b5090506116919190611695565b5090565b6116b791905b808211156116b357600081600090555060010161169b565b5090565b905600a165627a7a723058202c3d7d138707244a6a71637544153b17f53cbed2d91c125a8d7a82cf1c86cacc0029",
  "source": "pragma solidity ^0.4.21;\r\n\r\nimport \"./libraries/SafeMath.sol\";\r\nimport \"./Token.sol\";\r\nimport \"./ProofOfWorkToken.sol\";\r\n/**\r\n * @title Mineable Token\r\n *\r\n * @dev Turns a wallet into a mine for a specified ERC20 token\r\n */\r\ncontract OracleToken{\r\n\r\n    using SafeMath for uint256;\r\n    /*Variables*/\r\n\r\n    bytes32 public currentChallenge;\r\n    uint public timeOfLastProof; // time of last challenge solved\r\n    uint256 public difficulty = 1; // Difficulty starts low\r\n    uint public timeTarget;\r\n    uint count;\r\n    string public API;\r\n    uint public readFee;\r\n    address public master;\r\n    uint[5] public payoutStructure;\r\n    uint public  payoutMultiplier;\r\n    mapping(uint => uint) values;\r\n    Details[5] first_five;\r\n    uint public valuePool;\r\n    struct Details {\r\n        uint value;\r\n        address miner;\r\n    }\r\n \r\n\r\n    /*Events*/\r\n    event Mine(address indexed to,uint _time, uint value);\r\n    event NewValue(address _miner, uint _value);\r\n\r\n    /*Functions*/\r\n    /**\r\n     * @dev Constructor that sets the passed value as the token to be mineable.\r\n\r\n     */\r\n    function init(string _api,address _master,uint _readFee,uint _timeTarget,uint[5] _payoutStructure) external {\r\n\r\n        require (timeOfLastProof == 0);\r\n        timeOfLastProof = now;\r\n        API = _api;\r\n        master = _master;\r\n        readFee = _readFee;\r\n        timeTarget = _timeTarget;\r\n        payoutStructure = _payoutStructure;\r\n    }\r\n\r\n\r\n   function getVariables() public constant returns(bytes32, uint){\r\n    return (currentChallenge,difficulty);\r\n   }\r\n\r\n    /**\r\n     * @dev Proof of work to be done for mining\r\n     * @param nonce uint\r\n     * @return uint The amount rewarded\r\n     */\r\n\r\n    function proofOfWork(string nonce, uint value) external returns (uint256,uint256) {\r\n        bytes32 n = sha3(currentChallenge,msg.sender,nonce); // generate random hash based on input\r\n        require(uint(n) % difficulty == 0 && value > 0); //can we say > 0? I like it forces them to enter a valueS  \r\n        count++;\r\n        first_five[count-1] = Details({\r\n            value: value,\r\n            miner: msg.sender\r\n        }); \r\n        emit NewValue(msg.sender,value);\r\n        if(count == 5) {\r\n            if (now - timeOfLastProof< timeTarget){\r\n                difficulty++;\r\n            }\r\n            else if (now - timeOfLastProof > timeTarget){\r\n                difficulty--;\r\n            }\r\n            timeOfLastProof = now - (now % timeTarget);//should it be like this? So 10 minute intervals?;\r\n            pushValue(timeOfLastProof);\r\n            if(valuePool > 44) {\r\n                valuePool = valuePool.sub(22);\r\n                payoutMultiplier = valuePool / 22; //solidity should always round down\r\n            }\r\n            else{\r\n                payoutMultiplier = 1;\r\n            }\r\n            emit Mine(msg.sender,timeOfLastProof, value); // execute an event reflecting the change\r\n            count = 0;\r\n            currentChallenge = sha3(nonce, currentChallenge, block.blockhash(block.number - 1)); // Save hash for next proof\r\n        }\r\n        return (count,timeOfLastProof);\r\n    }\r\n\r\n\r\n    function retrieveData(uint _timestamp) public returns (uint) {\r\n        ProofOfWorkToken _master = ProofOfWorkToken(master);\r\n        require(_master.transfer(address(master),readFee));\r\n        valuePool.add(readFee);\r\n        return values[_timestamp];\r\n    }\r\n\r\n    function isData(uint _timestamp) external returns(bool){\r\n        return (values[_timestamp] > 0);\r\n    }\r\n\r\n    function getLastQuery() external returns(uint){\r\n        return retrieveData(timeOfLastProof);\r\n    }\r\n\r\n    function addToValuePool(uint _tip) public {\r\n        ProofOfWorkToken _master = ProofOfWorkToken(master);\r\n        require(_master.transfer(address(master),_tip));\r\n    }\r\n\r\n\r\n    function insertionSort(Details[5] storage a)internal {\r\n       for (uint i = 1;i < a.length;i++){\r\n        uint temp = a[i].value;\r\n        address temp2 = a[i].miner;\r\n        uint j;\r\n        for (j = i -1; j >= 0 && temp < a[j].value; j--)\r\n            a[j+1].value = a[j].value;\r\n            a[j+1].miner = a[j].miner;\r\n       }\r\n            a[j+1].value = temp;\r\n            a[j+1].miner= temp2;\r\n    }\r\n\r\n        function pushValue(uint _time) internal {\r\n        insertionSort(first_five);\r\n        ProofOfWorkToken _master = ProofOfWorkToken(master);\r\n        _master.iTransfer(first_five[2].miner, (payoutMultiplier.mul(payoutStructure[2]))); // reward to winner grows over time\r\n        _master.iTransfer(first_five[1].miner,payoutMultiplier.mul(payoutStructure[1])); // reward to winner grows over time\r\n        _master.iTransfer(first_five[3].miner, payoutMultiplier.mul(payoutStructure[3])); // reward to winner grows over time\r\n        _master.iTransfer(first_five[0].miner, payoutMultiplier.mul(payoutStructure[0])); // reward to winner grows over time\r\n        _master.iTransfer(first_five[4].miner, payoutMultiplier.mul(payoutStructure[4])); // reward to winner grows over time\r\n        values[_time] = first_five[2].value;\r\n    }\r\n\r\n\r\n\r\n    \r\n}",
  "sourcePath": "C:\\company\\code\\mineableoracle\\contracts\\OracleToken.sol",
  "compiler": {
    "name": "solc",
    "version": "0.4.24+commit.e67f0147.Emscripten.clang"
  },
  "schemaVersion": "2.0.1",
  "updatedAt": "2018-08-14T16:11:16.802Z"
}