{
  "contractName": "OracleToken",
  "abi": [
    {
      "constant": true,
      "inputs": [],
      "name": "difficulty",
      "outputs": [
        {
          "name": "",
          "type": "uint256"
        }
      ],
      "payable": false,
      "stateMutability": "view",
      "type": "function"
    },
    {
      "constant": true,
      "inputs": [],
      "name": "currentChallenge",
      "outputs": [
        {
          "name": "",
          "type": "bytes32"
        }
      ],
      "payable": false,
      "stateMutability": "view",
      "type": "function"
    },
    {
      "constant": true,
      "inputs": [],
      "name": "valuePool",
      "outputs": [
        {
          "name": "",
          "type": "uint256"
        }
      ],
      "payable": false,
      "stateMutability": "view",
      "type": "function"
    },
    {
      "constant": true,
      "inputs": [],
      "name": "payoutMultiplier",
      "outputs": [
        {
          "name": "",
          "type": "uint256"
        }
      ],
      "payable": false,
      "stateMutability": "view",
      "type": "function"
    },
    {
      "constant": true,
      "inputs": [],
      "name": "timeTarget",
      "outputs": [
        {
          "name": "",
          "type": "uint256"
        }
      ],
      "payable": false,
      "stateMutability": "view",
      "type": "function"
    },
    {
      "constant": true,
      "inputs": [],
      "name": "API",
      "outputs": [
        {
          "name": "",
          "type": "string"
        }
      ],
      "payable": false,
      "stateMutability": "view",
      "type": "function"
    },
    {
      "constant": true,
      "inputs": [],
      "name": "timeOfLastProof",
      "outputs": [
        {
          "name": "",
          "type": "uint256"
        }
      ],
      "payable": false,
      "stateMutability": "view",
      "type": "function"
    },
    {
      "constant": true,
      "inputs": [],
      "name": "readFee",
      "outputs": [
        {
          "name": "",
          "type": "uint256"
        }
      ],
      "payable": false,
      "stateMutability": "view",
      "type": "function"
    },
    {
      "constant": true,
      "inputs": [],
      "name": "master",
      "outputs": [
        {
          "name": "",
          "type": "address"
        }
      ],
      "payable": false,
      "stateMutability": "view",
      "type": "function"
    },
    {
      "anonymous": false,
      "inputs": [
        {
          "indexed": true,
          "name": "to",
          "type": "address"
        },
        {
          "indexed": false,
          "name": "_time",
          "type": "uint256"
        },
        {
          "indexed": false,
          "name": "value",
          "type": "uint256"
        }
      ],
      "name": "Mine",
      "type": "event"
    },
    {
      "anonymous": false,
      "inputs": [
        {
          "indexed": false,
          "name": "_miner",
          "type": "address"
        },
        {
          "indexed": false,
          "name": "_value",
          "type": "uint256"
        }
      ],
      "name": "NewValue",
      "type": "event"
    },
    {
      "constant": false,
      "inputs": [
        {
          "name": "_api",
          "type": "string"
        },
        {
          "name": "_master",
          "type": "address"
        },
        {
          "name": "_readFee",
          "type": "uint256"
        },
        {
          "name": "_timeTarget",
          "type": "uint256"
        }
      ],
      "name": "init",
      "outputs": [],
      "payable": false,
      "stateMutability": "nonpayable",
      "type": "function"
    },
    {
      "constant": true,
      "inputs": [],
      "name": "getVariables",
      "outputs": [
        {
          "name": "",
          "type": "bytes32"
        },
        {
          "name": "",
          "type": "uint256"
        }
      ],
      "payable": false,
      "stateMutability": "view",
      "type": "function"
    },
    {
      "constant": false,
      "inputs": [
        {
          "name": "nonce",
          "type": "string"
        },
        {
          "name": "value",
          "type": "uint256"
        }
      ],
      "name": "proofOfWork",
      "outputs": [
        {
          "name": "",
          "type": "uint256"
        },
        {
          "name": "",
          "type": "uint256"
        }
      ],
      "payable": false,
      "stateMutability": "nonpayable",
      "type": "function"
    },
    {
      "constant": true,
      "inputs": [
        {
          "name": "_timestamp",
          "type": "uint256"
        }
      ],
      "name": "retrieveData",
      "outputs": [
        {
          "name": "",
          "type": "uint256"
        }
      ],
      "payable": false,
      "stateMutability": "view",
      "type": "function"
    },
    {
      "constant": false,
      "inputs": [
        {
          "name": "_tip",
          "type": "uint256"
        }
      ],
      "name": "addToValuePool",
      "outputs": [],
      "payable": false,
      "stateMutability": "nonpayable",
      "type": "function"
    },
    {
      "constant": false,
      "inputs": [
        {
          "name": "_timestamp",
          "type": "uint256"
        },
        {
          "name": "_value",
          "type": "uint256"
        }
      ],
      "name": "testAdd",
      "outputs": [],
      "payable": false,
      "stateMutability": "nonpayable",
      "type": "function"
    }
  ],
  "bytecode": "0x6080604052600160025534801561001557600080fd5b50611626806100256000396000f3006080604052600436106100db576000357c0100000000000000000000000000000000000000000000000000000000900463ffffffff16806319cae462146100e057806342e0857f1461010b57806351bdd58514610199578063557d13d7146101cc5780635bee29b7146101f75780635c812737146102385780636fc37811146102635780637c3ffef21461028e5780637d7b0099146102c557806381c8149d1461035557806390ab171e1461038057806394aef022146103ab578063cc19658a146103e5578063d5bb080414610454578063ee97f7f314610481575b600080fd5b3480156100ec57600080fd5b506100f56104d8565b6040518082815260200191505060405180910390f35b34801561011757600080fd5b5061017c600480360381019080803590602001908201803590602001908080601f0160208091040260200160405190810160405280939291908181526020018383808284378201915050505050509192919290803590602001909291905050506104de565b604051808381526020018281526020019250505060405180910390f35b3480156101a557600080fd5b506101ae610893565b60405180826000191660001916815260200191505060405180910390f35b3480156101d857600080fd5b506101e1610899565b6040518082815260200191505060405180910390f35b34801561020357600080fd5b506102226004803603810190808035906020019092919050505061089f565b6040518082815260200191505060405180910390f35b34801561024457600080fd5b5061024d610a08565b6040518082815260200191505060405180910390f35b34801561026f57600080fd5b50610278610a0e565b6040518082815260200191505060405180910390f35b34801561029a57600080fd5b506102c36004803603810190808035906020019092919080359060200190929190505050610a14565b005b3480156102d157600080fd5b506102da610a30565b6040518080602001828103825283818151815260200191508051906020019080838360005b8381101561031a5780820151818401526020810190506102ff565b50505050905090810190601f1680156103475780820380516001836020036101000a031916815260200191505b509250505060405180910390f35b34801561036157600080fd5b5061036a610ace565b6040518082815260200191505060405180910390f35b34801561038c57600080fd5b50610395610ad4565b6040518082815260200191505060405180910390f35b3480156103b757600080fd5b506103c0610ada565b6040518083600019166000191681526020018281526020019250505060405180910390f35b3480156103f157600080fd5b50610452600480360381019080803590602001908201803590602001919091929391929390803573ffffffffffffffffffffffffffffffffffffffff1690602001909291908035906020019092919080359060200190929190505050610aeb565b005b34801561046057600080fd5b5061047f60048036038101908080359060200190929190505050610b6b565b005b34801561048d57600080fd5b50610496610ca1565b604051808273ffffffffffffffffffffffffffffffffffffffff1673ffffffffffffffffffffffffffffffffffffffff16815260200191505060405180910390f35b60025481565b6000806000805433866040518084600019166000191681526020018373ffffffffffffffffffffffffffffffffffffffff1673ffffffffffffffffffffffffffffffffffffffff166c0100000000000000000000000002815260140182805190602001908083835b60208310151561056b5780518252602082019150602081019050602083039250610546565b6001836020036101000a038019825116818451168082178552505050505050905001935050505060405180910390209050600060025482600190048115156105af57fe5b061415156105bc57600080fd5b60046000815480929190600101919050555060408051908101604052808581526020013373ffffffffffffffffffffffffffffffffffffffff16815250600a60016004540360058110151561060d57fe5b600202016000820151816000015560208201518160010160006101000a81548173ffffffffffffffffffffffffffffffffffffffff021916908373ffffffffffffffffffffffffffffffffffffffff1602179055509050507f7ecfc3facdaf96b974d20d3e0b1e6eeaf931f26e88598aaf589e2a9cf4cf991c3385604051808373ffffffffffffffffffffffffffffffffffffffff1673ffffffffffffffffffffffffffffffffffffffff1681526020018281526020019250505060405180910390a160056004541415610881576003546001544203101561070057600260008154809291906001019190505550610723565b6003546001544203111561072257600260008154809291906001900391905055505b5b603c4281151561072f57fe5b064203600181905550610743600154610cc7565b602c601454111561078457610764601660145461130290919063ffffffff16565b601481905550601660145481151561077857fe5b0460088190555061078d565b60016008819055505b3373ffffffffffffffffffffffffffffffffffffffff167f4cd36fb76975ab408e67b9ff3c17b4dd03112963aed18ccd8907a0c8b77daec260015486604051808381526020018281526020019250505060405180910390a260006004819055508460005460014303406040518084805190602001908083835b60208310151561082b5780518252602082019150602081019050602083039250610806565b6001836020036101000a0380198251168184511680821785525050505050509050018360001916600019168152602001826000191660001916815260200193505050506040518091039020600081600019169055505b60045460015492509250509250929050565b60005481565b60145481565b600080600760009054906101000a900473ffffffffffffffffffffffffffffffffffffffff1690508073ffffffffffffffffffffffffffffffffffffffff1663a9059cbb600760009054906101000a900473ffffffffffffffffffffffffffffffffffffffff166006546040518363ffffffff167c0100000000000000000000000000000000000000000000000000000000028152600401808373ffffffffffffffffffffffffffffffffffffffff1673ffffffffffffffffffffffffffffffffffffffff16815260200182815260200192505050602060405180830381600087803b15801561098e57600080fd5b505af11580156109a2573d6000803e3d6000fd5b505050506040513d60208110156109b857600080fd5b810190808051906020019092919050505015156109d457600080fd5b6109eb60065460145461131b90919063ffffffff16565b506009600084815260200190815260200160002054915050919050565b60085481565b60035481565b8060096000848152602001908152602001600020819055505050565b60058054600181600116156101000203166002900480601f016020809104026020016040519081016040528092919081815260200182805460018160011615610100020316600290048015610ac65780601f10610a9b57610100808354040283529160200191610ac6565b820191906000526020600020905b815481529060010190602001808311610aa957829003601f168201915b505050505081565b60015481565b60065481565b600080600054600254915091509091565b6000600154141515610afc57600080fd5b42600181905550848460059190610b14929190611555565b5082600760006101000a81548173ffffffffffffffffffffffffffffffffffffffff021916908373ffffffffffffffffffffffffffffffffffffffff16021790555081600681905550806003819055505050505050565b6000600760009054906101000a900473ffffffffffffffffffffffffffffffffffffffff1690508073ffffffffffffffffffffffffffffffffffffffff1663a9059cbb600760009054906101000a900473ffffffffffffffffffffffffffffffffffffffff16846040518363ffffffff167c0100000000000000000000000000000000000000000000000000000000028152600401808373ffffffffffffffffffffffffffffffffffffffff1673ffffffffffffffffffffffffffffffffffffffff16815260200182815260200192505050602060405180830381600087803b158015610c5757600080fd5b505af1158015610c6b573d6000803e3d6000fd5b505050506040513d6020811015610c8157600080fd5b81019080805190602001909291905050501515610c9d57600080fd5b5050565b600760009054906101000a900473ffffffffffffffffffffffffffffffffffffffff1681565b6000610cd3600a611339565b600760009054906101000a900473ffffffffffffffffffffffffffffffffffffffff1690508073ffffffffffffffffffffffffffffffffffffffff1663ef67b978600a6002600581101515610d2457fe5b6002020160010160009054906101000a900473ffffffffffffffffffffffffffffffffffffffff16610d62600a60085461152290919063ffffffff16565b6040518363ffffffff167c0100000000000000000000000000000000000000000000000000000000028152600401808373ffffffffffffffffffffffffffffffffffffffff1673ffffffffffffffffffffffffffffffffffffffff16815260200182815260200192505050602060405180830381600087803b158015610de757600080fd5b505af1158015610dfb573d6000803e3d6000fd5b505050506040513d6020811015610e1157600080fd5b8101908080519060200190929190505050508073ffffffffffffffffffffffffffffffffffffffff1663ef67b978600a6001600581101515610e4f57fe5b6002020160010160009054906101000a900473ffffffffffffffffffffffffffffffffffffffff16610e8d600560085461152290919063ffffffff16565b6040518363ffffffff167c0100000000000000000000000000000000000000000000000000000000028152600401808373ffffffffffffffffffffffffffffffffffffffff1673ffffffffffffffffffffffffffffffffffffffff16815260200182815260200192505050602060405180830381600087803b158015610f1257600080fd5b505af1158015610f26573d6000803e3d6000fd5b505050506040513d6020811015610f3c57600080fd5b8101908080519060200190929190505050508073ffffffffffffffffffffffffffffffffffffffff1663ef67b978600a6003600581101515610f7a57fe5b6002020160010160009054906101000a900473ffffffffffffffffffffffffffffffffffffffff16610fb8600560085461152290919063ffffffff16565b6040518363ffffffff167c0100000000000000000000000000000000000000000000000000000000028152600401808373ffffffffffffffffffffffffffffffffffffffff1673ffffffffffffffffffffffffffffffffffffffff16815260200182815260200192505050602060405180830381600087803b15801561103d57600080fd5b505af1158015611051573d6000803e3d6000fd5b505050506040513d602081101561106757600080fd5b8101908080519060200190929190505050508073ffffffffffffffffffffffffffffffffffffffff1663ef67b978600a60006005811015156110a557fe5b6002020160010160009054906101000a900473ffffffffffffffffffffffffffffffffffffffff166110e3600160085461152290919063ffffffff16565b6040518363ffffffff167c0100000000000000000000000000000000000000000000000000000000028152600401808373ffffffffffffffffffffffffffffffffffffffff1673ffffffffffffffffffffffffffffffffffffffff16815260200182815260200192505050602060405180830381600087803b15801561116857600080fd5b505af115801561117c573d6000803e3d6000fd5b505050506040513d602081101561119257600080fd5b8101908080519060200190929190505050508073ffffffffffffffffffffffffffffffffffffffff1663ef67b978600a60046005811015156111d057fe5b6002020160010160009054906101000a900473ffffffffffffffffffffffffffffffffffffffff1661120e600160085461152290919063ffffffff16565b6040518363ffffffff167c0100000000000000000000000000000000000000000000000000000000028152600401808373ffffffffffffffffffffffffffffffffffffffff1673ffffffffffffffffffffffffffffffffffffffff16815260200182815260200192505050602060405180830381600087803b15801561129357600080fd5b505af11580156112a7573d6000803e3d6000fd5b505050506040513d60208110156112bd57600080fd5b810190808051906020019092919050505050600a60026005811015156112df57fe5b600202016000015460096000848152602001908152602001600020819055505050565b600082821115151561131057fe5b818303905092915050565b600080828401905083811015151561132f57fe5b8091505092915050565b600080600080600193505b60058410156114a757848460058110151561135b57fe5b60020201600001549250848460058110151561137357fe5b6002020160010160009054906101000a900473ffffffffffffffffffffffffffffffffffffffff1691506001840390505b600081101580156113c9575084816005811015156113be57fe5b600202016000015483105b1561140e5784816005811015156113dc57fe5b600202016000015485600183016005811015156113f557fe5b60020201600001819055508080600190039150506113a4565b848160058110151561141c57fe5b6002020160010160009054906101000a900473ffffffffffffffffffffffffffffffffffffffff16856001830160058110151561145557fe5b6002020160010160006101000a81548173ffffffffffffffffffffffffffffffffffffffff021916908373ffffffffffffffffffffffffffffffffffffffff1602179055508380600101945050611344565b8285600183016005811015156114b957fe5b60020201600001819055508185600183016005811015156114d657fe5b6002020160010160006101000a81548173ffffffffffffffffffffffffffffffffffffffff021916908373ffffffffffffffffffffffffffffffffffffffff1602179055505050505050565b60008082840290506000841480611543575082848281151561154057fe5b04145b151561154b57fe5b8091505092915050565b828054600181600116156101000203166002900490600052602060002090601f016020900481019282601f1061159657803560ff19168380011785556115c4565b828001600101855582156115c4579182015b828111156115c35782358255916020019190600101906115a8565b5b5090506115d191906115d5565b5090565b6115f791905b808211156115f35760008160009055506001016115db565b5090565b905600a165627a7a723058206e34026981137b698c99313db075168b66e9a0418d0214533beb51bd95006e450029",
  "source": "pragma solidity ^0.4.21;\r\n\r\nimport \"./libraries/SafeMath.sol\";\r\nimport \"./Token.sol\";\r\nimport \"./ProofOfWorkToken.sol\";\r\n/**\r\n * @title Mineable Token\r\n *\r\n * @dev Turns a wallet into a mine for a specified ERC20 token\r\n */\r\ncontract OracleToken{\r\n\r\n    using SafeMath for uint256;\r\n    /*Variables*/\r\n\r\n    bytes32 public currentChallenge;\r\n    uint public timeOfLastProof; // time of last challenge solved\r\n    uint256 public difficulty = 1; // Difficulty starts low\r\n    uint public timeTarget;\r\n    uint count;\r\n    string public API;\r\n    uint public readFee;\r\n    address public master;\r\n    uint public  payoutMultiplier;\r\n    mapping(uint => uint) values;\r\n    Details[5] first_five;\r\n    uint public valuePool;\r\n    struct Details {\r\n        uint value;\r\n        address miner;\r\n    }\r\n \r\n\r\n    /*Events*/\r\n    event Mine(address indexed to,uint _time, uint value);\r\n    event NewValue(address _miner, uint _value);\r\n\r\n    /*Functions*/\r\n    /**\r\n     * @dev Constructor that sets the passed value as the token to be mineable.\r\n\r\n     */\r\n    function init(string _api,address _master,uint _readFee,uint _timeTarget) external {\r\n\r\n        require (timeOfLastProof == 0);\r\n        timeOfLastProof = now;\r\n        API = _api;\r\n        master = _master;\r\n        readFee = _readFee;\r\n        timeTarget = _timeTarget;\r\n    }\r\n\r\n\r\n   function getVariables() public constant returns(bytes32, uint){\r\n    return (currentChallenge,difficulty);\r\n   }\r\n\r\n    /**\r\n     * @dev Proof of work to be done for mining\r\n     * @param nonce uint\r\n     * @return uint The amount rewarded\r\n     */\r\n\r\n    function proofOfWork(string nonce, uint value) returns (uint256,uint256) {\r\n        bytes32 n = sha3(currentChallenge,msg.sender,nonce); // generate random hash based on input\r\n        require(uint(n) % difficulty == 0);\r\n        \r\n        count++;\r\n        first_five[count-1] = Details({\r\n            value: value,\r\n            miner: msg.sender\r\n        }); \r\n        emit NewValue(msg.sender,value);\r\n        if(count == 5) {\r\n            if (now - timeOfLastProof< timeTarget){\r\n                difficulty++;\r\n            }\r\n            else if (now - timeOfLastProof > timeTarget){\r\n                difficulty--;\r\n            }\r\n            timeOfLastProof = now - (now % 60);\r\n            pushValue(timeOfLastProof);\r\n            if(valuePool > 44) {\r\n                valuePool = valuePool.sub(22);\r\n                payoutMultiplier = valuePool / 22; //solidity should always round down\r\n            }\r\n            else{\r\n                payoutMultiplier = 1;\r\n            }\r\n            emit Mine(msg.sender,timeOfLastProof, value); // execute an event reflecting the change\r\n            count = 0;\r\n            currentChallenge = sha3(nonce, currentChallenge, block.blockhash(block.number - 1)); // Save hash for next proof\r\n        }\r\n        return (count,timeOfLastProof);\r\n    }\r\n\r\n    function pushValue(uint _time) internal {\r\n        insertionSort(first_five);\r\n        ProofOfWorkToken _master = ProofOfWorkToken(master);\r\n        _master.iTransfer(first_five[2].miner, (payoutMultiplier.mul(10))); // reward to winner grows over time\r\n        _master.iTransfer(first_five[1].miner,payoutMultiplier.mul(5)); // reward to winner grows over time\r\n        _master.iTransfer(first_five[3].miner, payoutMultiplier.mul(5)); // reward to winner grows over time\r\n        _master.iTransfer(first_five[0].miner, payoutMultiplier.mul(1)); // reward to winner grows over time\r\n        _master.iTransfer(first_five[4].miner, payoutMultiplier.mul(1)); // reward to winner grows over time\r\n        values[_time] = first_five[2].value;\r\n    }\r\n\r\n    function retrieveData(uint _timestamp) public constant returns (uint) {\r\n        ProofOfWorkToken _master = ProofOfWorkToken(master);\r\n        require(_master.transfer(address(master),readFee));\r\n        valuePool.add(readFee);\r\n        return values[_timestamp];\r\n    }\r\n\r\n    function addToValuePool(uint _tip) public {\r\n        ProofOfWorkToken _master = ProofOfWorkToken(master);\r\n        require(_master.transfer(address(master),_tip));\r\n    }\r\n\r\n    function testAdd(uint _timestamp, uint _value) public{\r\n      values[_timestamp] = _value;\r\n    }\r\n\r\n    function insertionSort(Details[5] storage a)internal {\r\n       for (uint i = 1;i < a.length;i++){\r\n        uint temp = a[i].value;\r\n        address temp2 = a[i].miner;\r\n        uint j;\r\n        for (j = i -1; j >= 0 && temp < a[j].value; j--)\r\n            a[j+1].value = a[j].value;\r\n            a[j+1].miner = a[j].miner;\r\n       }\r\n            a[j+1].value = temp;\r\n            a[j+1].miner= temp2;\r\n    }\r\n\r\n\r\n    \r\n}",
  "sourcePath": "C:\\company\\code\\mineableoracle\\contracts\\OracleToken.sol",
  "compiler": {
    "name": "solc",
    "version": "0.4.24+commit.e67f0147.Emscripten.clang"
  },
  "schemaVersion": "2.0.1",
  "updatedAt": "2018-08-08T17:31:10.093Z"
}